:100CC7004800090E0E0E0E0E0E0E0E460002080804
:100CD7000808080850001301010101010101010181
:100CE70001010101010101410011004100086EC12C
:050CF7000041001200A5
:100F03007FDDEFD394007480948040127ECFEED3C4
:0E0F130094007480948040031E80F31F80E4DD
:010F210022AD
:10001E00D201120F03120FE11210007F6E120EBCEE
:10002E00900002EFF07F6F120EBC900003EFF07F96
:10003E0070120EBC900004EFF07F71120EBC900097
:10004E0005EFF07F72120EBC900006EFF07F731278
:10005E000EBC900007EFF01203AB900011E0FF7E94
:10006E000064036002D296EF64014E6002D297EFF5
:10007E004E7014900009740EF0A3F0A3F0A3F0A339
:10008E00F0A3F0A3F0A3F0EF64024E701D900009F0
:10009E00740AF0A3740EF0A3F0A3F0A3740AF0A3F5
:1000AE0004F0A304F0A304F0D201EF64034E600346
:0300BE00020159E3
:1000C10090004DF0900009740FF0C296E490004E3C
:1000D100F090004EE0C394067480948050369000F6
:1000E1004DE025E0F0A3E0FF2402F582E43400F5C1
:1000F10083E0FE740B2FF582E43400F583E0900079
:100101004DB50606E04401F08002E0F090004EE0BB
:1001110004F080BD90004DE0FF7E00643F700B90C5
:1001210000117402F0E4A3F0802EEF643F4E6028CA
:10013100900012E064067020900011F090000974A4
:100141000EF0A3F0A3F0A3F0A3F0A3F0A3F0A3F0AB
:08015100E4900012F0120D2BE6
:10015900900011E064016003020029C297200103A5
:100169000200299000097410F0A3740EF0A3F0A303
:0E017900F0A3F0A3F0A3F0A3F0C2010200294E
:03000B00020BC520
:100BC500C0E0C0F0C083C082C0D075D000C000C0F6
:0D0BD50001C002C003C004C005C006C00777
:100BE200758CFC758A66900000E004F0E064027087
:100BF20035F0900009E0FFA3E0FDA3E0FBA3E09045
:100C02000048F090000DE0900049F090000EE09056
:100C1200004AF090000FE090004BF0900010E0903E
:090C2200004CF0120C461201878F
:100C2B00D007D006D005D004D003D002D001D0001D
:0B0C3B00D0D0D082D083D0F0D0E032C7
:03001B00020E4191
:060E4100C0E0C083C08286
:100E4700758DEE758B00900001E004F0E064FA7098
:100E57000FF0900011E064027004200001F0C2005E
:070E6700D082D083D0E032FD
:100CFC005000340101010101010101010101010157
:100D0C000101014100440041002300500024FFFF79
:0E0D1C00FFFFFFFFFFFFFFFFFFFFFFFFFFFFD7
:100FE100D2AF758901758CFC758A66D2A9D28C2223
:0E100000438910758DEEE4F58BD2ABD28E22B3
:1003AB00E490004FF090004FE0C39404748094806D
:1003BB004003020476E4A3F0900050E0C39404746D
:1003CB00809480400302046DE0FF90004FE0FE2517
:1003DB00E025E02434F582E43400F583E5822FF543
:1003EB0082E43583F583E0FDEE25E025E02413F56B
:1003FB0082E43400F583E5822FF582E43583F583BF
:10040B00E0FF6D6054EF601490004FE025E025E0B5
:10041B00FFA3E02FFF900044F01202D5900050E0B4
:10042B00FF90004FE0FE25E025E02434F582E43414
:10043B0000F583E5822FF582E43583F583E0FDEE4D
:10044B0025E025E02413F582E43400F583E5822FC3
:10045B00F582E43583F583EDF0900050E004F00273
:0B046B0003C390004FE004F00203B058
:010476002263
:10018700900023E0FF25E025E02424F582E43400F5
:10019700F583E025E0FEA2B4E4334EFEEF25E0252B
:1001A700E02424F582E43400F583EEF0900023E0A8
:1001B700FF25E025E02425F582E43400F583E025DA
:1001C700E0FEA2B5E4334EFEEF25E025E02425F559
:1001D70082E43400F583EEF0900023E0FF25E0256C
:1001E700E02426F582E43400F583E025E0FEA2B69C
:1001F700E4334EFEEF25E025E02426F582E43400C3
:10020700F583EEF0900023E0FF25E025E02427F5B5
:1002170082E43400F583E025E0FEA2B7E4334EFE26
:10022700EF25E025E02427F582E43400F583EEF09E
:10023700E4FFEFC39404748094805067900023E038
:10024700FE25E025E02424F582E43400F583E582E9
:100257002FF582E43583F583E0540FFD7C00701C95
:10026700EE25E025E02434F582E43400F583E582C9
:100277002FF582E43583F583E4F08024ED640F4C99
:10028700701E900023E025E025E02434F582E43455
:1002970000F583E5822FF582E43583F5837401F059
:1002A7000F808F900023E004F0E05403F014600FF8
:1002B70014601114601324037013D2B3C2B022D296
:0D02C700B0C2B122D2B1C2B222D2B2C2B3D3
:0102D4002207
:100FB6003F065B4F666D7D077F6F3F737B37004053
:090FC60039FEFDFBF7EFDFBF7FF0
:100F22007F01EFD394007480948040127E59EED3F7
:0E0F320094007480948040031E80F31F80E4BE
:010F4000228E
:100F41007F01EFD394007480948040127EE3EED34E
:0E0F510094007480948040031E80F31F80E49F
:010F5F00226F
:100F60007F01EFD394007480948040127E14EED3FE
:0E0F700094007480948040031E80F31F80E480
:010F7E002250
:100C46007580FFD2A7900054E0FE900FC793F58001
:100C5600C2A7EEB40800505C900C65F82828730211
:100C66000C7D020C82020C87020C8C020C94020C86
:100C76009C020CA4020CACD2A6EF8030D2A6ED806A
:100C86002BD2A6EB8026D2A6900048E0801ED2A6E4
:100C9600900049E08016D2A690004AE0800ED2A6C7
:100CA60090004BE08006D2A690004CE0900FB693E1
:100CB600F580C2A6900054E004F0E064087001F0EC
:010CC600220B
:05000300120008D2A16B
:03000800000022D3
:100FCF00E4FDFCC3ED9FEC9E50070DBD00010C80AE
:010FDF00F21F
:010FE00022EE
:0A000E00D2A1120008D2A0020008DF
:0F0FF100D2A0120003C2A0120008C2A102000881
:0A100E00C2A0120003D2A0020008E5
:100E6E00E4FEEEC39408748094805011EF25E0FFE9
:100E7E00C2A112000892A01200030E80E5C2A112B8
:070E8E000008D2A0020008D9
:100E1100E4FEC2A1120008D2A0FDEDC394087480C3
:100E21009480501612000330A0047F018002E4FF79
:0F0E3100EE25E04FFEC2A10D80E0120008AF06D3
:010E4000228F
:0B0E9500120E6E120EA0AF05120E6EC2
:100EA000E4FFD2A112000830A00DEFC394FF7480BC
:0C0EB000948050030F80F0C2A1020008E3
:020EBC00AD0780
:100EBE00120FF17FA0120E95120FF17FA1120E6E7E
:100ECE00120EA0120E11AB0712100E7F647E0012CE
:040EDE000FCFAF0380
:010EE20022ED
:100F7F00AC07120FF17FA0120E6E120EA0AF04126B
:0C0F8F000E9512100E7F887E13020FCF0B
:100EE300D3EF9400EE648094804007EF1F70F11EEF
:0F0EF30080EE7F727E00EF1F70011EEF4E70F7D2
:010F020022CC
:100D2B00C290D296D29790004F120D970000000000
:100D3B00E47F207E4EFDFC90004FE0F8A3E0F9A38A
:100D4B00E0FAA3E0FBC3120D7A502190004FE0FCB8
:100D5B00A3E0FDA3E0FEA3E02401FFE43EFEE43D9F
:0E0D6B00FDE43CFC90004F120D8B80C4D29032
:010D79002257
:10047700AE07900011E06403703F900012E004F0B3
:100487009000557403F0900055E0D394077480945E
:10049700805021E0FF2409F582E43400F583E0FD74
:1004A70074082FF582E43400F583EDF0900055E0F1
:1004B70004F080D2900010EEF0900011E06401701B
:1004C7005B900008E0FF64747005746EF0800BADFC
:1004D70006120F7F900008E004F09000557403F0B7
:1004E700900055E0D39407748094805021E0FF2456
:1004F70009F582E43400F583E0FE74082FF582E401
:100507003400F583EEF0900055E004F080D29000BF
:0D05170008E014FF120EBC900010EFF0225F
:10052400AE07900011E06403703F900012E004F005
:100534009000557403F0900055E0D39407748094B0
:10054400805021E0FF2409F582E43400F583E0FDC6
:1005540074082FF582E43400F583EDF0900055E043
:1005640004F080D2900010EEF0900011E06401706D
:100574005B900008E0FF64747005746EF0800BAD4E
:1005840006120F7F900008E004F09000557403F009
:10059400900055E0D39407748094805021E0FF24A8
:1005A40009F582E43400F583E0FE74082FF582E453
:1005B4003400F583EEF0900055E004F080D2900012
:0D05C40008E014FF120EBC900010EFF022B2
:1005D100AE07900011E06403703F900012E004F058
:1005E1009000557403F0900055E0D3940774809403
:1005F100805021E0FF2409F582E43400F583E0FD19
:1006010074082FF582E43400F583EDF0900055E095
:1006110004F080D2900010EEF0900011E0640170BF
:100621005B900008E0FF64747005746EF0800BADA0
:1006310006120F7F900008E004F09000557403F05B
:10064100900055E0D39407748094805021E0FF24FA
:1006510009F582E43400F583E0FE74082FF582E4A5
:100661003400F583EEF0900055E004F080D2900064
:0D06710008E014FF120EBC900010EFF02204
:10067E00AE07900011E06403703F900012E004F0AA
:10068E009000557403F0900055E0D3940774809455
:10069E00805021E0FF2409F582E43400F583E0FD6B
:1006AE0074082FF582E43400F583EDF0900055E0E8
:1006BE0004F080D2900010EEF0900011E064017012
:1006CE005B900008E0FF64747005746EF0800BADF3
:1006DE0006120F7F900008E004F09000557403F0AE
:1006EE00900055E0D39407748094805021E0FF244D
:1006FE0009F582E43400F583E0FE74082FF582E4F8
:10070E003400F583EEF0900055E004F080D29000B6
:0D071E0008E014FF120EBC900010EFF02256
:10072B00AE07900011E06403703F900012E004F0FC
:10073B009000557403F0900055E0D39407748094A7
:10074B00805021E0FF2409F582E43400F583E0FDBD
:10075B0074082FF582E43400F583EDF0900055E03A
:10076B0004F080D2900010EEF0900011E064017064
:10077B005B900008E0FF64747005746EF0800BAD45
:10078B0006120F7F900008E004F09000557403F000
:10079B00900055E0D39407748094805021E0FF249F
:1007AB0009F582E43400F583E0FE74082FF582E44A
:1007BB003400F583EEF0900055E004F080D2900009
:0D07CB0008E014FF120EBC900010EFF022A9
:1007D800AE07900011E06403703F900012E004F04F
:1007E8009000557403F0900055E0D39407748094FA
:1007F800805021E0FF2409F582E43400F583E0FD10
:1008080074082FF582E43400F583EDF0900055E08C
:1008180004F080D2900010EEF0900011E0640170B6
:100828005B900008E0FF64747005746EF0800BAD97
:1008380006120F7F900008E004F09000557403F052
:10084800900055E0D39407748094805021E0FF24F1
:1008580009F582E43400F583E0FE74082FF582E49C
:100868003400F583EEF0900055E004F080D290005B
:0D08780008E014FF120EBC900010EFF022FB
:10088500AE07900011E06403703F900012E004F0A1
:100895009000557403F0900055E0D394077480944C
:1008A500805021E0FF2409F582E43400F583E0FD62
:1008B50074082FF582E43400F583EDF0900055E0DF
:1008C50004F080D2900010EEF0900011E064017009
:1008D5005B900008E0FF64747005746EF0800BADEA
:1008E50006120F7F900008E004F09000557403F0A5
:1008F500900055E0D39407748094805021E0FF2444
:1009050009F582E43400F583E0FE74082FF582E4EE
:100915003400F583EEF0900055E004F080D29000AD
:0D09250008E014FF120EBC900010EFF0224D
:10093200AE07900011E06403703F900012E004F0F3
:100942009000557403F0900055E0D394077480949E
:10095200805021E0FF2409F582E43400F583E0FDB4
:1009620074082FF582E43400F583EDF0900055E031
:1009720004F080D2900010EEF0900011E06401705B
:100982005B900008E0FF64747005746EF0800BAD3C
:1009920006120F7F900008E004F09000557403F0F7
:1009A200900055E0D39407748094805021E0FF2496
:1009B20009F582E43400F583E0FE74082FF582E441
:1009C2003400F583EEF0900055E004F080D2900000
:0D09D20008E014FF120EBC900010EFF022A0
:1009DF00AE07900011E06403703F900012E004F046
:1009EF009000557403F0900055E0D39407748094F1
:1009FF00805021E0FF2409F582E43400F583E0FD07
:100A0F0074082FF582E43400F583EDF0900055E083
:100A1F0004F080D2900010EEF0900011E0640170AD
:100A2F005B900008E0FF64747005746EF0800BAD8E
:100A3F0006120F7F900008E004F09000557403F049
:100A4F00900055E0D39407748094805021E0FF24E8
:100A5F0009F582E43400F583E0FE74082FF582E493
:100A6F003400F583EEF0900055E004F080D2900052
:0D0A7F0008E014FF120EBC900010EFF022F2
:100A8C00AE07900011E06403703F900012E004F098
:100A9C009000557403F0900055E0D3940774809443
:100AAC00805021E0FF2409F582E43400F583E0FD59
:100ABC0074082FF582E43400F583EDF0900055E0D6
:100ACC0004F080D2900010EEF0900011E064017000
:100ADC005B900008E0FF64747005746EF0800BADE1
:100AEC0006120F7F900008E004F09000557403F09C
:100AFC00900055E0D39407748094805021E0FF243B
:100B0C0009F582E43400F583E0FE74082FF582E4E5
:100B1C003400F583EEF0900055E004F080D29000A4
:0D0B2C0008E014FF120EBC900010EFF02244
:0100180022C5
:0100190022C4
:01001A0022C3
:080DC800900011E0640370408B
:100DD000900012E014F09000537406F0900053E07D
:100DE000C39402748094804021E0FF2409F582E4DA
:100DF0003400F583E0FE740A2FF582E43400F583B5
:100E0000EEF0900053E014F080D290000B740EF0DE
:010E100022BF
:100F9B00900011E0FF7E00640170047402F022EFF8
:0B0FAB0064024E700590001104F0225B
:0A101800900011E070037403F02251
:1002D500900052EFF0B4100040030203AA9002E927
:1002E500F828287302031902032402032F02033A94
:1002F50002034502035002035B0203660203710217
:10030500037C02038702038D020393020399020310
:100315009F0203A5900052E0FF120477D2002290BD
:100325000052E0FF120524D20022900052E0FF1295
:1003350005D1D20022900052E0FF12067ED20022A3
:10034500900052E0FF12072BD20022900052E0FFEE
:100355001207D8D20022900052E0FF120885D20081
:1003650022900052E0FF120932D20022900052E0A2
:10037500FF1209DFD20022900052E0FF120A8CD250
:100385000022120018D20022120019D200221200F7
:100395001AD20022120DC8D20022120F9BD20022BF
:0603A500121018D2002224
:03000000020B39B7
:0C0B3900787FE4F6D8FD758120020B8067
:100D7A00EB9FF5F0EA9E42F0E99D42F0E89C45F0CF
:010D8A002246
:0C0D8B00ECF0A3EDF0A3EEF0A3EFF022DB
:100D9700A8828583F0D083D082120DAE120DAE12D9
:100DA7000DAE120DAEE473E493A3C583C5F0C583FE
:100DB700C8C582C8F0A3C583C5F0C583C8C582C8A6
:010DC7002209
:100B450002001EE493A3F8E493A34003F68001F2A8
:100B550008DFF48029E493A3F85407240CC8C333B1
:100B6500C4540F4420C8834004F456800146F6DF80
:100B7500E4800B0102040810204080900CC7E47E3D
:100B8500019360BCA3FF543F30E509541FFEE49375
:100B9500A360010ECF54C025E060A840B8E493A33C
:100BA500FAE493A3F8E493A3C8C582C8CAC583CA67
:100BB500F0A3C8C582C8CAC583CADFE9DEE780BE1F
:010D2A0000C8
:00000001FF
