:10062C0001010101010101010101010101010101AE
:100481004800520F0F00000000000046004C080811
:040491000808080847
:1005690078087C007D017BFF7A06792C7E007F105C
:1005790012022C12063C120252900059EFF080F63A
:03000B0002037F6E
:10037F00C0E0C0F0C083C082C0D075D000C000C044
:0D038F0001C002C003C004C005C006C007C5
:10039C00758CFC758A6690004BE004F0E06402708A
:1003AC0035F0900052E0FFA3E0FDA3E0FBA3E0904A
:1003BC000003F0900056E0900004F0900057E0909D
:1003CC000005F0900058E0900006F0900059E09085
:0903DC000007F012040012000EEB
:1003E500D007D006D005D004D003D002D001D0006C
:0B03F500D0D0D082D083D0F0D0E03216
:1004950050003A01010101010101010101010101C0
:1004A50001010141004A004100290050002AFFFFD7
:0E04B500FFFFFFFFFFFFFFFFFFFFFFFFFFFF47
:10063C00D2AF758901758CFC758A66D2A9D28C22D1
:10025200E4FBEBC394047480948040030202EDE457
:10026200FEEEC3940474809480507CEB25E025E07C
:10027200243AF582E43400F583E5822EF582E435F2
:1002820083F583E0FDEB25E025E02418F582E434D4
:1002920000F583E5822EF582E43583F583E0FC6D7B
:1002A2006041EC600AEB25E025E02E90004AF0EB7D
:1002B20025E025E0243AF582E43400F583E5822E38
:1002C200F582E43583F583E0FFEB25E025E0241891
:1002D200F582E43400F583E5822EF582E43583F578
:1002E20083EFF00E0202630B02025490004AE0FF19
:0102F20022E9
:10000E00900029E0FF25E025E0242AF582E4340063
:10001E00F583E025E0FEA2B4E4334EFEEF25E025A5
:10002E00E0242AF582E43400F583EEF0900029E016
:10003E00FF25E025E0242BF582E43400F583E0254E
:10004E00E0FEA2B5E4334EFEEF25E025E0242BF5CD
:10005E0082E43400F583EEF0900029E0FF25E025E0
:10006E00E0242CF582E43400F583E025E0FEA2B610
:10007E00E4334EFEEF25E025E0242CF582E4340037
:10008E00F583EEF0900029E0FF25E025E0242DF524
:10009E0082E43400F583E025E0FEA2B7E4334EFEA1
:1000AE00EF25E025E0242DF582E43400F583EEF013
:1000BE00E4FFEFC39404748094805067900029E0AD
:1000CE00FE25E025E0242AF582E43400F583E5825E
:1000DE002FF582E43583F583E0540FFD7C00701C10
:1000EE00EE25E025E0243AF582E43400F583E5823E
:1000FE002FF582E43583F583E4F08024ED640F4C14
:10010E00701E900029E025E025E0243AF582E434C3
:10011E0000F583E5822FF582E43583F5837401F0D3
:10012E000F808F900029E004F0E05403F014600F6C
:10013E0014601114601324037013D2B3C2B022D210
:0D014E00B0C2B122D2B1C2B222D2B2C2B34D
:01015B002281
:100602003F065B4F666D7D077F6F3F737B37004010
:08061200FEFDFBF7EFDFBF7FE7
:100589007F01EFD394007480948040127E59EED39A
:0E05990094007480948040031E80F31F80E461
:0105A7002231
:1005A8007F01EFD394007480948040127EE3EED3F1
:0E05B80094007480948040031E80F31F80E442
:0105C6002212
:1005C7007F01EFD394007480948040127E14EED3A1
:0E05D70094007480948040031E80F31F80E423
:0105E50022F3
:100400007580FFD2A790005AE0FE90061293F58007
:10041000C2A7EEB40800505C90041FF828287302AD
:10042000043702043C02044102044602044E020462
:100430005602045E020466D2A6EF8030D2A6ED809A
:100440002BD2A6EB8026D2A6900003E0801ED2A677
:10045000900004E08016D2A6900005E0800ED2A69F
:10046000900006E08006D2A6900007E09006029376
:10047000F580C2A690005AE004F0E064087001F034
:010480002259
:05000300120008D2A16B
:03000800000022D3
:10061A00E4FDFCC3ED9FEC9E50070DBD00010C806C
:01062A00F2DD
:01062B0022AC
:0A065B00D2A1120008D2A00200088C
:0F064C00D2A0120003C2A0120008C2A10200082F
:0A066500C2A0120003D2A002000898
:1004F400E4FEEEC39408748094805011EF25E0FF6D
:10050400C2A112000892A01200030E80E5C2A1123B
:070514000008D2A00200085C
:1004C400E4FEC2A1120008D2A0FDEDC3940874801A
:1004D4009480501612000330A0047F018002E4FFD0
:0F04E400EE25E04FFEC2A10D80E0120008AF062A
:0104F30022E6
:0B051B001204F4120526AF051204F4D0
:10052600E4FFD2A112000830A00DEFC394FF74803F
:0C053600948050030F80F0C2A102000866
:02054200AD0703
:1005440012064C7FA012051B12064C7FA11204F464
:100554001205261204C4AB071206657F647E0012DE
:04056400061AAF03C1
:010568002270
:1005E600AC0712064C7FA01204F4120526AF0412C3
:0C05F600051B1206657F887E1302061AA2
:030000000202F306
:0C02F300787FE4F6D8FD75810702033A1D
:10015C00E709F608DFFA8046E709F208DFFA803E85
:10016C0088828C83E709F0A3DFFA8032E309F60872
:10017C00DFFA8078E309F208DFFA807088828C83DA
:10018C00E309F0A3DFFA806489828A83E0A3F6088E
:10019C00DFFA805889828A83E0A3F208DFFA804C68
:1001AC0080D280FA80C680D4806980F2803380103F
:1001BC0080A680EA809A80A880DA80E280CA8033A8
:1001CC0089828A83ECFAE493A3C8C582C8CCC58320
:1001DC00CCF0A3C8C582C8CCC583CCDFE9DEE780F0
:1001EC000D89828A83E493A3F608DFF9ECFAA9F06F
:1001FC00EDFB2289828A83ECFAE0A3C8C582C8CCC5
:10020C00C583CCF0A3C8C582C8CCC583CCDFEADEDD
:10021C00E880DB89828A83E493A3F208DFF980CC3F
:10022C0088F0EF60010E4E60C388F0ED2402B40438
:10023C000050B9F582EB2402B4040050AF232345DF
:06024C0082239001AC7357
:1002FF00020569E493A3F8E493A34003F68001F2A7
:10030F0008DFF48029E493A3F85407240CC8C333FF
:10031F00C4540F4420C8834004F456800146F6DFCE
:10032F00E4800B0102040810204080900481E47ED9
:10033F00019360BCA3FF543F30E509541FFEE493C3
:10034F00A360010ECF54C025E060A840B8E493A38A
:10035F00FAE493A3F8E493A3C8C582C8CAC583CAB5
:10036F00F0A3C8C582C8CAC583CADFE9DEE780BE6D
:0104C3000038
:00000001FF
