:100C93004800090E0E0E0E0E0E0E0E460002080838
:100CA30008080808500013010101010101010101B5
:100CB30001010101010101410011004100086EC160
:050CC3000041001200D9
:100E0C007FDDEFD394007480948040127ECFEED3BC
:0E0E1C0094007480948040031E80F31F80E4D5
:010E2A0022A5
:10016C00D2017F6E120DE5900002EFF07F6F120D41
:10017C00E5900003EFF07F70120DE5900004EFF0B6
:10018C007F71120DE5900005EFF07F72120DE59076
:10019C000006EFF07F73120DE5900007EFF0120EE2
:1001AC000C120EE5120F04120377900011E0FF7E83
:1001BC00007014900009740EF0A3F0A3F0A3F0A348
:1001CC00F0A3F0A3F0A3F0EF64024E701D900009B1
:1001DC00740AF0A3740EF0A3F0A3F0A3740AF0A3B6
:1001EC0004F0A304F0A304F0D201EF64034E707981
:1001FC0090004DF0900009740FF0E490004EF090D8
:10020C00004EE0C3940674809480503690004DE00C
:10021C0025E0F0A3E0FF2402F582E43400F583E04E
:10022C00FE740B2FF582E43400F583E090004DB59D
:10023C000606E04401F08002E0F090004EE004F08D
:10024C0080BD90004DE0FF7E00643F70089000116F
:10025C007402F08014EF643F4E600E900012E06464
:09026C00067006900011F0A3F0E9
:10027500900011E0640160030201B3200103020153
:10028500B39000097410F0A3740EF0A3F0A3F0A3CB
:0C029500F0A3F0A3F0A3F0C2010201B33B
:03000B00020B9154
:100B9100C0E0C0F0C083C082C0D075D000C000C02A
:0D0BA10001C002C003C004C005C006C007AB
:100BAE00758CFC758A66900000E004F0E0640270BB
:100BBE0035F0900009E0FFA3E0FDA3E0FBA3E09079
:100BCE000048F090000DE0900049F090000EE0908B
:100BDE00004AF090000FE090004BF0900010E09073
:090BEE00004CF0120C1212001E62
:100BF700D007D006D005D004D003D002D001D00052
:0B0C0700D0D0D082D083D0F0D0E032FB
:03001B00020D6A69
:060D6A00C0E0C083C0825E
:100D7000758DEE758B00900001E004F0E064FA7070
:100D80000FF0900011E064027004200001F0C20036
:070D9000D082D083D0E032D5
:100CC800500034010101010101010101010101018B
:100CD8000101014100440041002300500024FFFFAE
:0E0CE800FFFFFFFFFFFFFFFFFFFFFFFFFFFF0C
:100EE500D2AF758901758CFC758A66D2A9D28C2220
:0E0F0400438910758DEEE4F58BD2ABD28E22B0
:10037700E490004FF090004FE0C3940474809480A1
:100387004003020442E4A3F0900050E0C3940474D5
:100397008094804003020439E0FF90004FE0FE257F
:1003A700E025E02434F582E43400F583E5822FF577
:1003B70082E43583F583E0FDEE25E025E02413F59F
:1003C70082E43400F583E5822FF582E43583F583F3
:1003D700E0FF6D6054EF601490004FE025E025E0EA
:1003E700FFA3E02FFF900044F01202A1900050E01D
:1003F700FF90004FE0FE25E025E02434F582E43449
:1004070000F583E5822FF582E43583F583E0FDEE81
:1004170025E025E02413F582E43400F583E5822FF7
:10042700F582E43583F583EDF0900050E004F002A7
:0B043700038F90004FE004F002037CF4
:010442002297
:10001E00900023E0FF25E025E02424F582E434005F
:10002E00F583E025E0FEA2B4E4334EFEEF25E02595
:10003E00E02424F582E43400F583EEF0900023E012
:10004E00FF25E025E02425F582E43400F583E02544
:10005E00E0FEA2B5E4334EFEEF25E025E02425F5C3
:10006E0082E43400F583EEF0900023E0FF25E025D6
:10007E00E02426F582E43400F583E025E0FEA2B606
:10008E00E4334EFEEF25E025E02426F582E434002D
:10009E00F583EEF0900023E0FF25E025E02427F520
:1000AE0082E43400F583E025E0FEA2B7E4334EFE91
:1000BE00EF25E025E02427F582E43400F583EEF009
:1000CE00E4FFEFC39404748094805067900023E0A3
:1000DE00FE25E025E02424F582E43400F583E58254
:1000EE002FF582E43583F583E0540FFD7C00701C00
:1000FE00EE25E025E02434F582E43400F583E58234
:10010E002FF582E43583F583E4F08024ED640F4C03
:10011E00701E900023E025E025E02434F582E434BF
:10012E0000F583E5822FF582E43583F5837401F0C3
:10013E000F808F900023E004F0E05403F014600F62
:10014E0014601114601324037013D2B3C2B022D200
:0D015E00B0C2B122D2B1C2B222D2B2C2B33D
:01016B002271
:100EA4003F065B4F666D7D077F6F3F737B37004066
:090EB40039FEFDFBF7EFDFBF7F03
:100E2B007F01EFD394007480948040127E59EED3EF
:0E0E3B0094007480948040031E80F31F80E4B6
:010E49002286
:100E4A007F01EFD394007480948040127EE3EED346
:0E0E5A0094007480948040031E80F31F80E497
:010E68002267
:100E69007F01EFD394007480948040127E14EED3F6
:0E0E790094007480948040031E80F31F80E478
:010E87002248
:100C12007580FFD2A7900054E0FE900EB593F58048
:100C2200C2A7EEB40800505C900C31F82828730279
:100C32000C49020C4E020C53020C58020C60020CBE
:100C420068020C70020C78D2A6EF8030D2A6ED803A
:100C52002BD2A6EB8026D2A6900048E0801ED2A618
:100C6200900049E08016D2A690004AE0800ED2A6FB
:100C720090004BE08006D2A690004CE0900EA49328
:100C8200F580C2A6900054E004F0E064087001F020
:010C9200223F
:05000300120008D2A16B
:03000800000022D3
:100ED300E4FDFCC3ED9FEC9E50070DBD00010C80AB
:010EE300F21C
:010EE40022EB
:0A000E00D2A1120008D2A0020008DF
:0F0EF500D2A0120003C2A0120008C2A10200087E
:0A0F1200C2A0120003D2A0020008E2
:100D9700E4FEEEC39408748094805011EF25E0FFC1
:100DA700C2A112000892A01200030E80E5C2A11290
:070DB7000008D2A0020008B1
:100D3A00E4FEC2A1120008D2A0FDEDC3940874809B
:100D4A009480501612000330A0047F018002E4FF51
:0F0D5A00EE25E04FFEC2A10D80E0120008AF06AB
:010D69002267
:0B0DBE00120D97120DC9AF05120D9722
:100DC900E4FFD2A112000830A00DEFC394FF748094
:0C0DD900948050030F80F0C2A1020008BB
:020DE500AD0758
:100DE700120EF57FA0120DBE120EF57FA1120D9700
:100DF700120DC9120D3AAB07120F127F647E001253
:040E07000ED3AF0354
:010E0B0022C4
:100E8800AC07120EF57FA0120D97120DC9AF041210
:0C0E98000DBE120F127F887E13020ED3D5
:10044300AE07900011E06403703F900012E004F0E7
:100453009000557403F0900055E0D3940774809492
:10046300805021E0FF2409F582E43400F583E0FDA8
:1004730074082FF582E43400F583EDF0900055E025
:1004830004F080D2900010EEF0900011E06401704F
:100493005B900008E0FF64747005746EF0800BAD30
:1004A30006120E88900008E004F09000557403F0E3
:1004B300900055E0D39407748094805021E0FF248A
:1004C30009F582E43400F583E0FE74082FF582E435
:1004D3003400F583EEF0900055E004F080D29000F4
:0D04E30008E014FF120DE5900010EFF0226C
:1004F000AE07900011E06403703F900012E004F03A
:100500009000557403F0900055E0D39407748094E4
:10051000805021E0FF2409F582E43400F583E0FDFA
:1005200074082FF582E43400F583EDF0900055E077
:1005300004F080D2900010EEF0900011E0640170A1
:100540005B900008E0FF64747005746EF0800BAD82
:1005500006120E88900008E004F09000557403F035
:10056000900055E0D39407748094805021E0FF24DC
:1005700009F582E43400F583E0FE74082FF582E487
:100580003400F583EEF0900055E004F080D2900046
:0D05900008E014FF120DE5900010EFF022BE
:10059D00AE07900011E06403703F900012E004F08C
:1005AD009000557403F0900055E0D3940774809437
:1005BD00805021E0FF2409F582E43400F583E0FD4D
:1005CD0074082FF582E43400F583EDF0900055E0CA
:1005DD0004F080D2900010EEF0900011E0640170F4
:1005ED005B900008E0FF64747005746EF0800BADD5
:1005FD0006120E88900008E004F09000557403F088
:10060D00900055E0D39407748094805021E0FF242E
:10061D0009F582E43400F583E0FE74082FF582E4D9
:10062D003400F583EEF0900055E004F080D2900098
:0D063D0008E014FF120DE5900010EFF02210
:10064A00AE07900011E06403703F900012E004F0DE
:10065A009000557403F0900055E0D3940774809489
:10066A00805021E0FF2409F582E43400F583E0FD9F
:10067A0074082FF582E43400F583EDF0900055E01C
:10068A0004F080D2900010EEF0900011E064017046
:10069A005B900008E0FF64747005746EF0800BAD27
:1006AA0006120E88900008E004F09000557403F0DA
:1006BA00900055E0D39407748094805021E0FF2481
:1006CA0009F582E43400F583E0FE74082FF582E42C
:1006DA003400F583EEF0900055E004F080D29000EB
:0D06EA0008E014FF120DE5900010EFF02263
:1006F700AE07900011E06403703F900012E004F031
:100707009000557403F0900055E0D39407748094DB
:10071700805021E0FF2409F582E43400F583E0FDF1
:1007270074082FF582E43400F583EDF0900055E06E
:1007370004F080D2900010EEF0900011E064017098
:100747005B900008E0FF64747005746EF0800BAD79
:1007570006120E88900008E004F09000557403F02C
:10076700900055E0D39407748094805021E0FF24D3
:1007770009F582E43400F583E0FE74082FF582E47E
:100787003400F583EEF0900055E004F080D290003D
:0D07970008E014FF120DE5900010EFF022B5
:1007A400AE07900011E06403703F900012E004F083
:1007B4009000557403F0900055E0D394077480942E
:1007C400805021E0FF2409F582E43400F583E0FD44
:1007D40074082FF582E43400F583EDF0900055E0C1
:1007E40004F080D2900010EEF0900011E0640170EB
:1007F4005B900008E0FF64747005746EF0800BADCC
:1008040006120E88900008E004F09000557403F07E
:10081400900055E0D39407748094805021E0FF2425
:1008240009F582E43400F583E0FE74082FF582E4D0
:100834003400F583EEF0900055E004F080D290008F
:0D08440008E014FF120DE5900010EFF02207
:10085100AE07900011E06403703F900012E004F0D5
:100861009000557403F0900055E0D3940774809480
:10087100805021E0FF2409F582E43400F583E0FD96
:1008810074082FF582E43400F583EDF0900055E013
:1008910004F080D2900010EEF0900011E06401703D
:1008A1005B900008E0FF64747005746EF0800BAD1E
:1008B10006120E88900008E004F09000557403F0D1
:1008C100900055E0D39407748094805021E0FF2478
:1008D10009F582E43400F583E0FE74082FF582E423
:1008E1003400F583EEF0900055E004F080D29000E2
:0D08F10008E014FF120DE5900010EFF0225A
:1008FE00AE07900011E06403703F900012E004F028
:10090E009000557403F0900055E0D39407748094D2
:10091E00805021E0FF2409F582E43400F583E0FDE8
:10092E0074082FF582E43400F583EDF0900055E065
:10093E0004F080D2900010EEF0900011E06401708F
:10094E005B900008E0FF64747005746EF0800BAD70
:10095E0006120E88900008E004F09000557403F023
:10096E00900055E0D39407748094805021E0FF24CA
:10097E0009F582E43400F583E0FE74082FF582E475
:10098E003400F583EEF0900055E004F080D2900034
:0D099E0008E014FF120DE5900010EFF022AC
:1009AB00AE07900011E06403703F900012E004F07A
:1009BB009000557403F0900055E0D3940774809425
:1009CB00805021E0FF2409F582E43400F583E0FD3B
:1009DB0074082FF582E43400F583EDF0900055E0B8
:1009EB0004F080D2900010EEF0900011E0640170E2
:1009FB005B900008E0FF64747005746EF0800BADC3
:100A0B0006120E88900008E004F09000557403F075
:100A1B00900055E0D39407748094805021E0FF241C
:100A2B0009F582E43400F583E0FE74082FF582E4C7
:100A3B003400F583EEF0900055E004F080D2900086
:0D0A4B0008E014FF120DE5900010EFF022FE
:100A5800AE07900011E06403703F900012E004F0CC
:100A68009000557403F0900055E0D3940774809477
:100A7800805021E0FF2409F582E43400F583E0FD8D
:100A880074082FF582E43400F583EDF0900055E00A
:100A980004F080D2900010EEF0900011E064017034
:100AA8005B900008E0FF64747005746EF0800BAD15
:100AB80006120E88900008E004F09000557403F0C8
:100AC800900055E0D39407748094805021E0FF246F
:100AD80009F582E43400F583E0FE74082FF582E41A
:100AE8003400F583EEF0900055E004F080D29000D9
:0D0AF80008E014FF120DE5900010EFF02251
:0100180022C5
:0100190022C4
:01001A0022C3
:080CF700900011E06403703A63
:100CFF009000537406F0900053E0C39402748094F4
:100D0F00804021E0FF2409F582E43400F583E0FE02
:100D1F00740A2FF582E43400F583EEF0900053E06F
:0A0D2F0014F080D290000B740EF057
:010D39002297
:100EBD00900011E0640170037402F0900011E06481
:060ECD0002700204F02295
:0A0F1C00900011E070037403F0224E
:1002A100900052EFF0B4100040030203769002B5C3
:1002B100F82828730202E50202F00202FB0203069B
:1002C10002031102031C02032702033202033D024F
:1002D100034802035302035902035F020365020349
:1002E1006B020371900052E0FF120443D20022908E
:1002F1000052E0FF1204F0D20022900052E0FF12FF
:10030100059DD20022900052E0FF12064AD200223F
:10031100900052E0FF1206F7D20022900052E0FF57
:100321001207A4D20022900052E0FF120851D2001D
:1003310022900052E0FF1208FED20022900052E00B
:10034100FF1209ABD20022900052E0FF120A58D2EC
:100351000022120018D20022120019D2002212002B
:100361001AD20022120CF7D20022120EBDD20022A4
:06037100120F1CD2002255
:03000000020B05EB
:0C0B0500787FE4F6D8FD758120020B4CCF
:100B110002016CE493A3F8E493A34003F68001F28D
:100B210008DFF48029E493A3F85407240CC8C333E5
:100B3100C4540F4420C8834004F456800146F6DFB4
:100B4100E4800B0102040810204080900C93E47EA5
:100B5100019360BCA3FF543F30E509541FFEE493A9
:100B6100A360010ECF54C025E060A840B8E493A370
:100B7100FAE493A3F8E493A3C8C582C8CAC583CA9B
:100B8100F0A3C8C582C8CAC583CADFE9DEE780BE53
:010CF60000FD
:00000001FF
