:100BCE0048002A0F0F00000000000046002308080E
:100BDE00080808085000330101010101010101015B
:0F0BEE0001010101010101410032004100296EA6
:100C5C007F83EFD394007480948040217E9CEED3EC
:100C6C0094007480948040127D03EDD394007480C2
:0D0C7C00948040031D80F31E80E41F80D58E
:010C89002248
:10022800120DA212015C900032E0FF7E0070149063
:10023800002A740EF0A3F0A3F0A3F0A3F0A3F0A398
:10024800F0A3F0EF64024E702190002A740AF0A324
:10025800740EF0A3F0A3F0A3740AF0A304F0A304AF
:10026800F0A304F0120C5CE4A3F0900032E0640305
:0202780070B163
:10027A0090004BF0A3F090004CE0C3940674809475
:10028A0080503690004BE025E0F0A3E0FF2423F5F0
:10029A0082E43400F583E0FE742C2FF582E4340006
:1002AA00F583E090004BB50606E04401F08002E0D9
:1002BA00F090004CE004F080BD90004BE0643F6099
:0A02CA000302022B9000327402F0D0
:0302D40002022BF8
:03000B00020ACC1A
:100ACC00C0E0C0F0C083C082C0D075D000C000C0F0
:0D0ADC0001C002C003C004C005C006C00771
:100AE900758CFC758A66900022E004F0E06402705F
:100AF90035F090002AE0FFA3E0FDA3E0FBA3E0901E
:100B09000046F090002EE0900047F090002FE09012
:100B19000048F0900030E0900049F0900031E090FA
:090B2900004AF0120B4D12000EFF
:100B3200D007D006D005D004D003D002D001D00017
:0B0B4200D0D0D082D083D0F0D0E032C1
:100BFD00500011010101010101010101010101017A
:100C0D000101014100210041000000500001FFFFE2
:0E0C1D00FFFFFFFFFFFFFFFFFFFFFFFFFFFFD7
:100DA200D2AF758901758CFC758A66D2A9D28C2264
:10015C00E490004DF090004DE0C3940474809480C2
:10016C004003020227E4A3F090004EE0C394047411
:10017C00809480400302021EE0FF90004DE0FE25BB
:10018C00E025E02411F582E43400F583E5822FF5B7
:10019C0082E43583F583E0FDEE25E025E02433F59C
:1001AC0082E43400F583E5822FF582E43583F58310
:1001BC00E0FF6D6054EF601490004DE025E025E009
:1001CC00FFA3E02FFF900021F012099990004EE060
:1001DC00FF90004DE0FE25E025E02411F582E4348B
:1001EC0000F583E5822FF582E43583F583E0FDEE9F
:1001FC0025E025E02433F582E43400F583E5822FF5
:10020C00F582E43583F583EDF090004EE004F002C6
:0B021C00017490004DE004F00201614D
:0102270022B4
:10000E00900000E0FF25E025E02401F582E43400B5
:10001E00F583E025E0FEA2B4E4334EFEEF25E025A5
:10002E00E02401F582E43400F583EEF0900000E068
:10003E00FF25E025E02402F582E43400F583E02577
:10004E00E0FEA2B5E4334EFEEF25E025E02402F5F6
:10005E0082E43400F583EEF0900000E0FF25E02509
:10006E00E02403F582E43400F583E025E0FEA2B639
:10007E00E4334EFEEF25E025E02403F582E4340060
:10008E00F583EEF0900000E0FF25E025E02404F576
:10009E0082E43400F583E025E0FEA2B7E4334EFEA1
:1000AE00EF25E025E02404F582E43400F583EEF03C
:1000BE00E4FFEFC39404748094805067900000E0D6
:1000CE00FE25E025E02401F582E43400F583E58287
:1000DE002FF582E43583F583E0540FFD7C00701C10
:1000EE00EE25E025E02411F582E43400F583E58267
:1000FE002FF582E43583F583E4F08024ED640F4C14
:10010E00701E900000E025E025E02411F582E43415
:10011E0000F583E5822FF582E43583F5837401F0D3
:10012E000F808F900000E004F0E05403F014600F95
:10013E0014601114601324037013D2B3C2B022D210
:0D014E00B0C2B122D2B1C2B222D2B2C2B34D
:01015B002281
:100D78003F065B4F666D7D077F6F3F737B37004093
:080D8800FEFDFBF7EFDFBF7F6A
:100CFF007F01EFD394007480948040127E59EED31D
:0E0D0F0094007480948040031E80F31F80E4E3
:010D1D0022B3
:100D1E007F01EFD394007480948040127EE3EED373
:0E0D2E0094007480948040031E80F31F80E4C4
:010D3C002294
:100D3D007F01EFD394007480948040127E14EED323
:0E0D4D0094007480948040031E80F31F80E4A5
:010D5B002275
:100B4D007580FFD2A7900051E0FE900D8893F5803F
:100B5D00C2A7EEB40800505C900B6CF82828730205
:100B6D000B84020B89020B8E020B93020B9B020B63
:100B7D00A3020BAB020BB3D2A6EF8030D2A6ED8051
:100B8D002BD2A6EB8026D2A6900046E0801ED2A6E0
:100B9D00900047E08016D2A6900048E0800ED2A6C5
:100BAD00900049E08006D2A690004AE0900D78931F
:100BBD00F580C2A6900051E004F0E064087001F0E9
:010BCD002205
:05000300120008D2A16B
:03000800000022D3
:100D9000E4FDFCC3ED9FEC9E50070DBD00010C80EF
:010DA000F260
:010DA100222F
:0A0DC100D2A1120008D2A00200081F
:0F0DB200D2A0120003C2A0120008C2A1020008C2
:0A0DCB00C2A0120003D2A00200082B
:100C8A00E4FEEEC39408748094805011EF25E0FFCF
:100C9A00C2A112000892A01200030E80E5C2A1129E
:070CAA000008D2A0020008BF
:100C2C00E4FEC2A1120008D2A0FDEDC394087480AA
:100C3C009480501612000330A0047F018002E4FF60
:0F0C4C00EE25E04FFEC2A10D80E0120008AF06BA
:010C5B002276
:0B0CB100120C8A120CBCAF05120C8A5A
:100CBC00E4FFD2A112000830A00DEFC394FF7480A2
:0C0CCC00948050030F80F0C2A1020008C9
:020CD800AD0766
:100CDA00120DB27FA0120CB1120DB27FA1120C8AB2
:100CEA00120CBC120C2CAB07120DCB7F647E0012C7
:040CFA000D90AF03A7
:010CFE0022D3
:100D5C00AC07120DB27FA0120C8A120CBCAF04129D
:0C0D6C000CB1120DCB7F887E13020D909D
:1002D700AE07900032E0640370399000527403F067
:1002E700900052E0D39407748094805021E0FF245B
:1002F7002AF582E43400F583E0FD74292FF582E4C2
:100307003400F583EDF0900052E004F080D29000C5
:1003170031EEF0900032E0FD64017060ED6403702F
:100327005B900029E0FF64747005746EF0800BAD7C
:1003370006120D5C900029E004F09000527403F05F
:10034700900052E0D39407748094805021E0FF24FA
:100357002AF582E43400F583E0FE74292FF582E460
:100367003400F583EEF0900052E004F080D2900064
:0D03770029E014FF120CD8900031EFF022A5
:10038400AE07900032E0640370399000527403F0B9
:10039400900052E0D39407748094805021E0FF24AD
:1003A4002AF582E43400F583E0FD74292FF582E414
:1003B4003400F583EDF0900052E004F080D2900018
:1003C40031EEF0900032E0FD64017060ED64037082
:1003D4005B900029E0FF64747005746EF0800BADCF
:1003E40006120D5C900029E004F09000527403F0B2
:1003F400900052E0D39407748094805021E0FF244D
:100404002AF582E43400F583E0FE74292FF582E4B2
:100414003400F583EEF0900052E004F080D29000B6
:0D04240029E014FF120CD8900031EFF022F7
:10043100AE07900032E0640370399000527403F00B
:10044100900052E0D39407748094805021E0FF24FF
:100451002AF582E43400F583E0FD74292FF582E466
:100461003400F583EDF0900052E004F080D290006A
:1004710031EEF0900032E0FD64017060ED640370D4
:100481005B900029E0FF64747005746EF0800BAD21
:1004910006120D5C900029E004F09000527403F004
:1004A100900052E0D39407748094805021E0FF249F
:1004B1002AF582E43400F583E0FE74292FF582E405
:1004C1003400F583EEF0900052E004F080D2900009
:0D04D10029E014FF120CD8900031EFF0224A
:1004DE00AE07900032E0640370399000527403F05E
:1004EE00900052E0D39407748094805021E0FF2452
:1004FE002AF582E43400F583E0FD74292FF582E4B9
:10050E003400F583EDF0900052E004F080D29000BC
:10051E0031EEF0900032E0FD64017060ED64037026
:10052E005B900029E0FF64747005746EF0800BAD73
:10053E0006120D5C900029E004F09000527403F056
:10054E00900052E0D39407748094805021E0FF24F1
:10055E002AF582E43400F583E0FE74292FF582E457
:10056E003400F583EEF0900052E004F080D290005B
:0D057E0029E014FF120CD8900031EFF0229C
:10058B00AE07900032E0640370399000527403F0B0
:10059B00900052E0D39407748094805021E0FF24A4
:1005AB002AF582E43400F583E0FD74292FF582E40B
:1005BB003400F583EDF0900052E004F080D290000F
:1005CB0031EEF0900032E0FD64017060ED64037079
:1005DB005B900029E0FF64747005746EF0800BADC6
:1005EB0006120D5C900029E004F09000527403F0A9
:1005FB00900052E0D39407748094805021E0FF2444
:10060B002AF582E43400F583E0FE74292FF582E4A9
:10061B003400F583EEF0900052E004F080D29000AD
:0D062B0029E014FF120CD8900031EFF022EE
:10063800AE07900032E0640370399000527403F002
:10064800900052E0D39407748094805021E0FF24F6
:100658002AF582E43400F583E0FD74292FF582E45D
:100668003400F583EDF0900052E004F080D2900061
:1006780031EEF0900032E0FD64017060ED640370CB
:100688005B900029E0FF64747005746EF0800BAD18
:1006980006120D5C900029E004F09000527403F0FB
:1006A800900052E0D39407748094805021E0FF2496
:1006B8002AF582E43400F583E0FE74292FF582E4FC
:1006C8003400F583EEF0900052E004F080D2900000
:0D06D80029E014FF120CD8900031EFF02241
:1006E500AE07900032E0640370399000527403F055
:1006F500900052E0D39407748094805021E0FF2449
:100705002AF582E43400F583E0FD74292FF582E4AF
:100715003400F583EDF0900052E004F080D29000B3
:1007250031EEF0900032E0FD64017060ED6403701D
:100735005B900029E0FF64747005746EF0800BAD6A
:1007450006120D5C900029E004F09000527403F04D
:10075500900052E0D39407748094805021E0FF24E8
:100765002AF582E43400F583E0FE74292FF582E44E
:100775003400F583EEF0900052E004F080D2900052
:0D07850029E014FF120CD8900031EFF02293
:10079200AE07900032E0640370399000527403F0A7
:1007A200900052E0D39407748094805021E0FF249B
:1007B2002AF582E43400F583E0FD74292FF582E402
:1007C2003400F583EDF0900052E004F080D2900006
:1007D20031EEF0900032E0FD64017060ED64037070
:1007E2005B900029E0FF64747005746EF0800BADBD
:1007F20006120D5C900029E004F09000527403F0A0
:10080200900052E0D39407748094805021E0FF243A
:100812002AF582E43400F583E0FE74292FF582E4A0
:100822003400F583EEF0900052E004F080D29000A4
:0D08320029E014FF120CD8900031EFF022E5
:10083F00AE07900032E0640370399000527403F0F9
:10084F00900052E0D39407748094805021E0FF24ED
:10085F002AF582E43400F583E0FD74292FF582E454
:10086F003400F583EDF0900052E004F080D2900058
:10087F0031EEF0900032E0FD64017060ED640370C2
:10088F005B900029E0FF64747005746EF0800BAD0F
:10089F0006120D5C900029E004F09000527403F0F2
:1008AF00900052E0D39407748094805021E0FF248D
:1008BF002AF582E43400F583E0FE74292FF582E4F3
:1008CF003400F583EEF0900052E004F080D29000F7
:0D08DF0029E014FF120CD8900031EFF02238
:1008EC00AE07900032E0640370399000527403F04C
:1008FC00900052E0D39407748094805021E0FF2440
:10090C002AF582E43400F583E0FD74292FF582E4A6
:10091C003400F583EDF0900052E004F080D29000AA
:10092C0031EEF0900032E0FD64017060ED64037014
:10093C005B900029E0FF64747005746EF0800BAD61
:10094C0006120D5C900029E004F09000527403F044
:10095C00900052E0D39407748094805021E0FF24DF
:10096C002AF582E43400F583E0FE74292FF582E445
:10097C003400F583EEF0900052E004F080D2900049
:0D098C0029E014FF120CD8900031EFF0228A
:010DDF0022F1
:010DE00022F0
:010DE10022EF
:010DE20022EE
:010DE30022ED
:0A0DD500900032E070037403F02276
:10099900900050EFF0B410004003020A3F9009ADF7
:1009A900F82828730209DD0209E50209ED0209F5B3
:1009B9000209FD020A05020A0D020A15020A1D02B0
:1009C9000A25020A2D020A30020A33020A36020AED
:1009D90039020A3C900050E0FF0202D7900050E033
:1009E900FF020384900050E0FF020431900050E0C0
:1009F900FF0204DE900050E0FF02058B900050E0FA
:100A0900FF020638900050E0FF0206E5900050E032
:100A1900FF020792900050E0FF02083F900050E06B
:100A2900FF0208EC020DDF020DE0020DE1020DE20A
:070A3900020DE3120DD522AE
:03000000020A40B1
:0C0A4000787FE4F6D8FD758107020A8774
:100A4C00020228E493A3F8E493A34003F68001F296
:100A5C0008DFF48029E493A3F85407240CC8C333AB
:100A6C00C4540F4420C8834004F456800146F6DF7A
:100A7C00E4800B0102040810204080900BCEE47E31
:100A8C00019360BCA3FF543F30E509541FFEE4936F
:100A9C00A360010ECF54C025E060A840B8E493A336
:100AAC00FAE493A3F8E493A3C8C582C8CAC583CA61
:100ABC00F0A3C8C582C8CAC583CADFE9DEE780BE19
:010C2B0000C8
:00000001FF
